:100000000C942A000C942A060C9454060C947E0638
:100010000C9447000C9447000C9447000C94470044
:100020000C9447000C9447000C9447000C94470034
:100030000C9447000C9447000C9447000C94470024
:100040000C9429040C9447000C9447000C9447002E
:100050000C94470011241FBECFE5D8E0DEBFCDBF12
:1000600010E0A0E6B0E0E6EDFDE002C005900D92E4
:10007000AE3EB107D9F720E0AEEEB0E001C01D9270
:10008000A43FB207E1F70E940A040C94E9060C941D
:1000900000008CE10E94F705811127C08FE59AEEE0
:1000A0000197F1F700C00000809164008230C0F039
:1000B00041E06091F1000E94DD0380916400815075
:1000C0008093640066EC70E080E00E94ED03609134
:1000D000F100809164000E94330380E00E944F038E
:1000E0008CE10E94F7058823D9F38DE10E94F70582
:1000F000811127C08FE59AEE0197F1F700C000004B
:10010000809164008330C0F441E06091F1000E946E
:10011000DD03809164008F5F8093640066EC70E083
:1001200080E00E94ED036091F100809164000E94E4
:10013000330380E00E944F038DE10E94F70588237E
:10014000D9F38BE10E94F705811127C08FE59AEE64
:100150000197F1F700C00000809163008230C0F089
:1001600041E0609162000E94DD0380916300815054
:100170008093630066EC70E080E00E94ED03609184
:100180006200809163000E94330380E00E944F036D
:100190008BE10E94F7058823D9F38AE10E94F705D5
:1001A000811127C08FE59AEE0197F1F700C000009A
:1001B000809163008330C0F441E0609162000E944E
:1001C000DD03809163008F5F8093630066EC70E0D5
:1001D00080E00E94ED0360916200809163000E94C4
:1001E000330380E00E944F038AE10E94F7058823D1
:1001F000D9F308956EEB70E081E00E94ED03609109
:100200006000809161000E94330381E00E944F03EF
:100210002FEF80E792E0215080409040E1F700C04E
:10022000000041E060916000809161000E94DD0368
:1002300008951092F0001092EF0082E08093640025
:100240001092F1008093630093E190936200809399
:1002500061008AE0809360000E94D30361E080E047
:100260000E9433038DE690E00E94520341E850E083
:1002700064E081E00E9465032FEF83ED90E321505D
:1002800080409040E1F700C000000E94D30360E08E
:1002900080E00E9433038CE890E00E9452036DE0FE
:1002A00080E00E94330382E990E00E94520366ECF2
:1002B00070E080E00E94ED036091F10080916400A5
:1002C0000E94330380E00E944F0366EC70E080E000
:1002D0000E94ED0360916200809163000E943303ED
:1002E00080E00E944F030E94FA0008958091600010
:1002F0008F5F809360001092EE00089580916000FF
:1003000081508093600081E08093EE000895809199
:10031000F0008F5F8093F00042E064E080E00E9494
:10032000DD0364E080E00E9433036091F00070E040
:1003300080E090E00E94700308958091EF008F5F4D
:100340008093EF0042E061E180E00E94DD0361E123
:1003500080E00E9433036091EF0070E080E090E065
:100360000E94700308952FEF80E792E021508040B3
:100370009040E1F700C000000E94D30362E082E0F9
:100380000E9433038091F000853020F088E990E0EE
:100390000E9452038091EF00853020F08BEA90E0BC
:1003A0000E9452032FEF81E19AE721508040904054
:1003B000E1F700C000000E94190108958091F0004B
:1003C000853020F48091EF00853010F00E94B30159
:1003D0008EE10E94F705811112C08FE59AEE019718
:1003E000F1F700C0000080916100823018F0815068
:1003F000809361008EE10E94F7058823D9F38FE195
:100400000E94F705811112C08FE59AEE0197F1F76E
:1004100000C0000080916100833018F48F5F8093EA
:1004200061008FE10E94F7058823D9F38091EE00E7
:1004300081111CC080916000833190F48F5F8093A4
:10044000600090916200891308C0909161008091D2
:100450006300981302C00E947E010E94FA00089572
:100460008AE0809360000E94870108958130D9F46A
:1004700080916000882391F081508093600090917A
:10048000F100891308C09091610080916400981375
:1004900002C00E9476010E94FA0008958AE08093CB
:1004A00060000E949D010895CF93C82F60E083E013
:1004B0000E9474056C2F661F6627661F8CE00E94E1
:1004C0007405C6FB662760F98AE00E947405C5FBC7
:1004D000662760F989E00E947405C4FB662760F90D
:1004E00088E00E94740561E082E00E9474058FEC50
:1004F00097E00197F1F700C0000060E082E00E9401
:1005000074058FEC97E00197F1F700C00000C3FB82
:10051000662760F98CE00E947405C2FB662760F9CB
:100520008AE00E947405C1FB662760F989E00E9499
:1005300074056C2F617088E00E94740561E082E0B0
:100540000E9474058FEC97E00197F1F700C000005E
:1005500060E082E00E9474058FEC97E00197F1F76C
:1005600000C00000CF910895CF93C82F61E083E0D1
:100570000E9474056C2F661F6627661F8CE00E9420
:100580007405C6FB662760F98AE00E947405C5FB06
:10059000662760F989E00E947405C4FB662760F94C
:1005A00088E00E94740561E082E00E9474058FEC8F
:1005B00097E00197F1F700C0000060E082E00E9440
:1005C00074058FEC97E00197F1F700C00000C3FBC2
:1005D000662760F98CE00E947405C2FB662760F90B
:1005E0008AE00E947405C1FB662760F989E00E94D9
:1005F00074056C2F617088E00E94740561E082E0F0
:100600000E9474058FEC97E00197F1F700C000009D
:1006100060E082E00E9474058FEC97E00197F1F7AB
:1006200000C00000CF9108952FE788E391E02150AA
:1006300080409040E1F700C0000082E00E94540238
:1006400088E20E9454028CE00E94540281E00E94E1
:1006500054028FEC97E00197F1F700C0000086E0AC
:100660000E9454020895811105C080E8860F0E94FF
:1006700054020895813029F480EC860F0E945402C0
:100680000895823029F484E9860F0E945402089567
:10069000833021F484ED860F0E94540208950E9455
:1006A000B40208950F931F93CF938C01C0E003C051
:1006B0000E944F03CF5FF801EC0FF11D8081811183
:1006C000F7CFCF911F910F910895CF93DF93EA0158
:1006D0000E943303CE010E945203DF91CF9108950F
:1006E000CF92DF92EF92FF921F93CF93DF93CDB71C
:1006F000DEB760970FB6F894DEBF0FBECDBF6B01BB
:100700007C01611571058105910521F480E30E944A
:100710004F033BC099235CF48DE20E944F03F09499
:10072000E094D094C094C11CD11CE11CF11C10E0D9
:1007300015C0C701B6012AE030E040E050E00E9459
:10074000CA06E1E0F0E0EC0FFD1FE10FF11D605D76
:1007500060831F5FC22ED32EE42EF52EC114D10468
:10076000E104F10431F7FF24FA94F10E0CC0E1E04A
:10077000F0E0EC0FFD1FEF0DF11DF7FCFA95808105
:100780000E944F03FA94FF2094F760960FB6F894F6
:10079000DEBF0FBECDBFDF91CF911F91FF90EF90D5
:1007A000DF90CF90089581E00E9454028FEC97E093
:1007B0000197F1F700C000000895CF93DF93D42F85
:1007C0000E943303C0E004C080E20E944F03CF5F69
:1007D000CD17D0F3DF91CF9108950F931F93CF934F
:1007E0008B0190E00896880F880F880F0E945402B2
:1007F000C0E007C0F801EC0FF11D80810E94B40237
:10080000CF5FC830B8F380E80E945402CF911F91A7
:100810000F9108950E9464050E9414030E9419011B
:100820000E9449000E94DE01FBCF9091F3009111DC
:100830000FC096B1986096B997B1907E97B997B16D
:10084000892B87B986B1806486B981E08093F300F3
:1008500008951F920F920FB60F9211242F933F937A
:100860004F935F936F937F938F939F93AF93BF93B8
:10087000EF93FF931092F300E0916500F091660012
:1008800009958091F200882319F0813049F00EC05B
:1008900081E08093F2008091F2000E94150406C06E
:1008A0001092F2008091F2000E941504FF91EF91E6
:1008B000BF91AF919F918F917F916F915F914F9178
:1008C0003F912F910F900FBE0F901F901895982F6A
:1008D0009770869586958695613009F455C020F00D
:1008E000623009F4A1C008958130C1F028F082304F
:1008F00039F18330B9F108954AB321E030E0B9010C
:1009000002C0660F771F9A95E2F7CB01942F982BC0
:100910009ABB9BB3809589238BBB089547B321E095
:1009200030E0B90102C0660F771F9A95E2F7CB015C
:10093000942F982B97BB98B38095892388BB0895F3
:1009400044B321E030E0B90102C0660F771F9A95E9
:10095000E2F7CB01942F982B94BB95B38095892314
:1009600085BB089541B321E030E0B90102C0660FB4
:10097000771F9A95E2F7CB01942F982B91BB92B3F6
:100980008095892382BB08958130C1F028F08230A0
:1009900039F18330B9F108954AB321E030E0B9016B
:1009A00002C0660F771F9A95E2F7CB018095942FCE
:1009B00098239ABB9BB389238BBB089547B321E04F
:1009C00030E0B90102C0660F771F9A95E2F7CB01BC
:1009D0008095942F982397BB98B3892388BB08955B
:1009E00044B321E030E0B90102C0660F771F9A9549
:1009F000E2F7CB018095942F982394BB95B389237C
:100A000085BB089541B321E030E0B90102C0660F13
:100A1000771F9A95E2F7CB018095942F982391BB8D
:100A200092B3892382BB08958130C1F028F08230CF
:100A300039F18330B9F108954AB321E030E0B901CA
:100A400002C0660F771F9A95E2F7CB01962F90951B
:100A500094239ABB9BB3892B8BBB089547B321E0AA
:100A600030E0B90102C0660F771F9A95E2F7CB011B
:100A7000962F9095942397BB98B3892B88BB0895A4
:100A800044B321E030E0B90102C0660F771F9A95A8
:100A9000E2F7CB01962F9095942394BB95B3892BC5
:100AA00085BB089541B321E030E0B90102C0660F73
:100AB000771F9A95E2F7CB01962F9095942391BBDF
:100AC00092B3892B82BB0895CF93C0E009C0EC2F6D
:100AD000F0E0E253FF4F60818C2F0E946704CF5FEC
:100AE000C032A8F3CF910895982F97708695869578
:100AF00086956130E1F5813099F028F08230E9F097
:100B0000833041F108954BB321E030E0B90102C0D8
:100B1000660F771F9A95E2F7CB01842B8BBB089564
:100B200048B321E030E0B90102C0660F771F9A9503
:100B3000E2F7CB01842B88BB089545B321E030E078
:100B4000B90102C0660F771F9A95E2F7CB01842B9B
:100B500085BB089542B321E030E0B90102C0660FC1
:100B6000771F9A95E2F7CB01842B82BB08958130E1
:100B7000A1F028F08230F9F0833059F108954BB399
:100B800021E030E0B90102C0660F771F9A95E2F7C5
:100B9000CB01809584238BBB089548B321E030E0DE
:100BA000B90102C0660F771F9A95E2F7CB018095D5
:100BB000842388BB089545B321E030E0B90102C029
:100BC000660F771F9A95E2F7CB018095842385BB4A
:100BD000089542B321E030E0B90102C0660F771FEB
:100BE0009A95E2F7CB018095842382BB0895282F44
:100BF0002770869586958695813079F028F0823029
:100C0000A9F08330E1F024C089B390E002C095954B
:100C100087952A95E2F78170089586B390E002C027
:100C2000959587952A95E2F78170089583B390E0B2
:100C300002C0959587952A95E2F78170089580B353
:100C400090E002C0959587952A95E2F78170089506
:100C500080E008951F920F920FB60F9211242F93E8
:100C60003F934F935F936F937F938F939F93AF9334
:100C7000BF93EF93FF93E0916B00F0916C00E23033
:100C8000F10509F00995FF91EF91BF91AF919F9107
:100C90008F917F916F915F914F913F912F910F9025
:100CA0000FBE0F901F9018951F920F920FB60F92C4
:100CB00011242F933F934F935F936F937F938F9361
:100CC0009F93AF93BF93EF93FF93E0916900F091EF
:100CD0006A00E230F10509F00995FF91EF91BF91AB
:100CE000AF919F918F917F916F915F914F913F91C4
:100CF0002F910F900FBE0F901F9018951F920F927B
:100D00000FB60F9211242F933F934F935F936F93DE
:100D10007F938F939F93AF93BF93EF93FF93E09154
:100D20006700F0916800E230F10509F00995FF9144
:100D3000EF91BF91AF919F918F917F916F915F9153
:100D40004F913F912F910F900FBE0F901F901895CC
:100D5000A1E21A2EAA1BBB1BFD010DC0AA1FBB1FBF
:100D6000EE1FFF1FA217B307E407F50720F0A21B31
:100D7000B30BE40BF50B661F771F881F991F1A949E
:100D800069F760957095809590959B01AC01BD01C8
:100D9000CF010895052E97FB1EF400940E94E106F2
:100DA00057FD07D00E94A80607FC03D04EF40C9410
:100DB000E10650954095309521953F4F4F4F5F4F3D
:100DC000089590958095709561957F4F8F4F9F4FB7
:060DD0000895F894FFCF26
:100DD6000A02130202020002000200020057656CBA
:100DE600636F6D6520746F206D792067616D652E68
:100DF6000050696E6720506F6E67210050313A20AF
:100E0600300050323A203000506C617965722031E2
:100E16002069732057696E6E657200506C61796542
:100E26007220322069732057696E6E657200000E5B
:100E36001F1B1F0E0000040A040E15040A110101EF
:100E4600000000000000000000000000000000009C
:0E0E5600000000000000000102020202020281
:00000001FF
